{
  "contracts/Dstorage.sol": {
    "DStorage": {
      "abi": [
        {
          "inputs": [],
          "stateMutability": "nonpayable",
          "type": "constructor"
        },
        {
          "anonymous": false,
          "inputs": [
            {
              "indexed": false,
              "internalType": "uint256",
              "name": "fileId",
              "type": "uint256"
            },
            {
              "indexed": false,
              "internalType": "string",
              "name": "fileHash",
              "type": "string"
            },
            {
              "indexed": false,
              "internalType": "uint256",
              "name": "fileSize",
              "type": "uint256"
            },
            {
              "indexed": false,
              "internalType": "string",
              "name": "fileType",
              "type": "string"
            },
            {
              "indexed": false,
              "internalType": "string",
              "name": "fileName",
              "type": "string"
            },
            {
              "indexed": false,
              "internalType": "string",
              "name": "fileDescription",
              "type": "string"
            },
            {
              "indexed": false,
              "internalType": "uint256",
              "name": "uploadTime",
              "type": "uint256"
            },
            {
              "indexed": false,
              "internalType": "address payable",
              "name": "uploader",
              "type": "address"
            }
          ],
          "name": "FileUploaded",
          "type": "event"
        },
        {
          "inputs": [],
          "name": "fileCount",
          "outputs": [
            {
              "internalType": "uint256",
              "name": "",
              "type": "uint256"
            }
          ],
          "stateMutability": "view",
          "type": "function"
        },
        {
          "inputs": [
            {
              "internalType": "uint256",
              "name": "",
              "type": "uint256"
            }
          ],
          "name": "files",
          "outputs": [
            {
              "internalType": "uint256",
              "name": "fileId",
              "type": "uint256"
            },
            {
              "internalType": "string",
              "name": "fileHash",
              "type": "string"
            },
            {
              "internalType": "uint256",
              "name": "fileSize",
              "type": "uint256"
            },
            {
              "internalType": "string",
              "name": "fileType",
              "type": "string"
            },
            {
              "internalType": "string",
              "name": "fileName",
              "type": "string"
            },
            {
              "internalType": "string",
              "name": "fileDescription",
              "type": "string"
            },
            {
              "internalType": "uint256",
              "name": "uploadTime",
              "type": "uint256"
            },
            {
              "internalType": "address payable",
              "name": "uploader",
              "type": "address"
            }
          ],
          "stateMutability": "view",
          "type": "function"
        },
        {
          "inputs": [],
          "name": "name",
          "outputs": [
            {
              "internalType": "string",
              "name": "",
              "type": "string"
            }
          ],
          "stateMutability": "view",
          "type": "function"
        },
        {
          "inputs": [
            {
              "internalType": "string",
              "name": "_fileHash",
              "type": "string"
            },
            {
              "internalType": "uint256",
              "name": "_fileSize",
              "type": "uint256"
            },
            {
              "internalType": "string",
              "name": "_fileType",
              "type": "string"
            },
            {
              "internalType": "string",
              "name": "_fileName",
              "type": "string"
            },
            {
              "internalType": "string",
              "name": "_fileDescription",
              "type": "string"
            }
          ],
          "name": "uploadFile",
          "outputs": [],
          "stateMutability": "nonpayable",
          "type": "function"
        }
      ],
      "evm": {
        "bytecode": {
          "linkReferences": {},
          "object": "60806040526040518060400160405280600881526020017f4453746f72616765000000000000000000000000000000000000000000000000815250600090816200004a9190620002de565b5060006001553480156200005d57600080fd5b50620003c5565b600081519050919050565b7f4e487b7100000000000000000000000000000000000000000000000000000000600052604160045260246000fd5b7f4e487b7100000000000000000000000000000000000000000000000000000000600052602260045260246000fd5b60006002820490506001821680620000e657607f821691505b602082108103620000fc57620000fb6200009e565b5b50919050565b60008190508160005260206000209050919050565b60006020601f8301049050919050565b600082821b905092915050565b600060088302620001667fffffffffffffffffffffffffffffffffffffffffffffffffffffffffffffffff8262000127565b62000172868362000127565b95508019841693508086168417925050509392505050565b6000819050919050565b6000819050919050565b6000620001bf620001b9620001b3846200018a565b62000194565b6200018a565b9050919050565b6000819050919050565b620001db836200019e565b620001f3620001ea82620001c6565b84845462000134565b825550505050565b600090565b6200020a620001fb565b62000217818484620001d0565b505050565b5b818110156200023f576200023360008262000200565b6001810190506200021d565b5050565b601f8211156200028e57620002588162000102565b620002638462000117565b8101602085101562000273578190505b6200028b620002828562000117565b8301826200021c565b50505b505050565b600082821c905092915050565b6000620002b36000198460080262000293565b1980831691505092915050565b6000620002ce8383620002a0565b9150826002028217905092915050565b620002e98262000064565b67ffffffffffffffff8111156200030557620003046200006f565b5b620003118254620000cd565b6200031e82828562000243565b600060209050601f83116001811462000356576000841562000341578287015190505b6200034d8582620002c0565b865550620003bd565b601f198416620003668662000102565b60005b82811015620003905784890151825560018201915060208501945060208101905062000369565b86831015620003b05784890151620003ac601f891682620002a0565b8355505b6001600288020188555050505b505050505050565b6111d280620003d56000396000f3fe608060405234801561001057600080fd5b506004361061004c5760003560e01c806306fdde0314610051578063439535191461006f578063e82d9d331461008d578063f4c714b4146100a9575b600080fd5b6100596100e0565b60405161006691906107db565b60405180910390f35b61007761016e565b6040516100849190610816565b60405180910390f35b6100a760048036038101906100a291906109a6565b610174565b005b6100c360048036038101906100be9190610a91565b6104c3565b6040516100d7989796959493929190610aff565b60405180910390f35b600080546100ed90610bc8565b80601f016020809104026020016040519081016040528092919081815260200182805461011990610bc8565b80156101665780601f1061013b57610100808354040283529160200191610166565b820191906000526020600020905b81548152906001019060200180831161014957829003601f168201915b505050505081565b60015481565b60008551116101b8576040517f08c379a00000000000000000000000000000000000000000000000000000000081526004016101af90610c45565b60405180910390fd5b60008351116101fc576040517f08c379a00000000000000000000000000000000000000000000000000000000081526004016101f390610cb1565b60405180910390fd5b6000815111610240576040517f08c379a000000000000000000000000000000000000000000000000000000000815260040161023790610d1d565b60405180910390fd5b6000825111610284576040517f08c379a000000000000000000000000000000000000000000000000000000000815260040161027b90610d89565b60405180910390fd5b600073ffffffffffffffffffffffffffffffffffffffff163373ffffffffffffffffffffffffffffffffffffffff16036102f3576040517f08c379a00000000000000000000000000000000000000000000000000000000081526004016102ea90610df5565b60405180910390fd5b60008411610336576040517f08c379a000000000000000000000000000000000000000000000000000000000815260040161032d90610e87565b60405180910390fd5b6001600081548092919061034990610ed6565b919050555060405180610100016040528060015481526020018681526020018581526020018481526020018381526020018281526020014281526020013373ffffffffffffffffffffffffffffffffffffffff168152506002600060015481526020019081526020016000206000820151816000015560208201518160010190816103d491906110ca565b506040820151816002015560608201518160030190816103f491906110ca565b50608082015181600401908161040a91906110ca565b5060a082015181600501908161042091906110ca565b5060c0820151816006015560e08201518160070160006101000a81548173ffffffffffffffffffffffffffffffffffffffff021916908373ffffffffffffffffffffffffffffffffffffffff1602179055509050507f6e95bbaa37a5fdec42a312e049dea2fe6160ebe659214d3409b4f91f164c2f52600154868686868642336040516104b4989796959493929190610aff565b60405180910390a15050505050565b60026020528060005260406000206000915090508060000154908060010180546104ec90610bc8565b80601f016020809104026020016040519081016040528092919081815260200182805461051890610bc8565b80156105655780601f1061053a57610100808354040283529160200191610565565b820191906000526020600020905b81548152906001019060200180831161054857829003601f168201915b50505050509080600201549080600301805461058090610bc8565b80601f01602080910402602001604051908101604052809291908181526020018280546105ac90610bc8565b80156105f95780601f106105ce576101008083540402835291602001916105f9565b820191906000526020600020905b8154815290600101906020018083116105dc57829003601f168201915b50505050509080600401805461060e90610bc8565b80601f016020809104026020016040519081016040528092919081815260200182805461063a90610bc8565b80156106875780601f1061065c57610100808354040283529160200191610687565b820191906000526020600020905b81548152906001019060200180831161066a57829003601f168201915b50505050509080600501805461069c90610bc8565b80601f01602080910402602001604051908101604052809291908181526020018280546106c890610bc8565b80156107155780601f106106ea57610100808354040283529160200191610715565b820191906000526020600020905b8154815290600101906020018083116106f857829003601f168201915b5050505050908060060154908060070160009054906101000a900473ffffffffffffffffffffffffffffffffffffffff16905088565b600081519050919050565b600082825260208201905092915050565b60005b8381101561078557808201518184015260208101905061076a565b60008484015250505050565b6000601f19601f8301169050919050565b60006107ad8261074b565b6107b78185610756565b93506107c7818560208601610767565b6107d081610791565b840191505092915050565b600060208201905081810360008301526107f581846107a2565b905092915050565b6000819050919050565b610810816107fd565b82525050565b600060208201905061082b6000830184610807565b92915050565b6000604051905090565b600080fd5b600080fd5b600080fd5b600080fd5b7f4e487b7100000000000000000000000000000000000000000000000000000000600052604160045260246000fd5b61088782610791565b810181811067ffffffffffffffff821117156108a6576108a561084f565b5b80604052505050565b60006108b9610831565b90506108c5828261087e565b919050565b600067ffffffffffffffff8211156108e5576108e461084f565b5b6108ee82610791565b9050602081019050919050565b82818337600083830152505050565b600061091d610918846108ca565b6108af565b9050828152602081018484840111156109395761093861084a565b5b6109448482856108fb565b509392505050565b600082601f83011261096157610960610845565b5b813561097184826020860161090a565b91505092915050565b610983816107fd565b811461098e57600080fd5b50565b6000813590506109a08161097a565b92915050565b600080600080600060a086880312156109c2576109c161083b565b5b600086013567ffffffffffffffff8111156109e0576109df610840565b5b6109ec8882890161094c565b95505060206109fd88828901610991565b945050604086013567ffffffffffffffff811115610a1e57610a1d610840565b5b610a2a8882890161094c565b935050606086013567ffffffffffffffff811115610a4b57610a4a610840565b5b610a578882890161094c565b925050608086013567ffffffffffffffff811115610a7857610a77610840565b5b610a848882890161094c565b9150509295509295909350565b600060208284031215610aa757610aa661083b565b5b6000610ab584828501610991565b91505092915050565b600073ffffffffffffffffffffffffffffffffffffffff82169050919050565b6000610ae982610abe565b9050919050565b610af981610ade565b82525050565b600061010082019050610b15600083018b610807565b8181036020830152610b27818a6107a2565b9050610b366040830189610807565b8181036060830152610b4881886107a2565b90508181036080830152610b5c81876107a2565b905081810360a0830152610b7081866107a2565b9050610b7f60c0830185610807565b610b8c60e0830184610af0565b9998505050505050505050565b7f4e487b7100000000000000000000000000000000000000000000000000000000600052602260045260246000fd5b60006002820490506001821680610be057607f821691505b602082108103610bf357610bf2610b99565b5b50919050565b7f46696c6520686173682069732072657175697265642e00000000000000000000600082015250565b6000610c2f601683610756565b9150610c3a82610bf9565b602082019050919050565b60006020820190508181036000830152610c5e81610c22565b9050919050565b7f46696c6520747970652069732072657175697265642e00000000000000000000600082015250565b6000610c9b601683610756565b9150610ca682610c65565b602082019050919050565b60006020820190508181036000830152610cca81610c8e565b9050919050565b7f46696c65206465736372697074696f6e2069732072657175697265642e000000600082015250565b6000610d07601d83610756565b9150610d1282610cd1565b602082019050919050565b60006020820190508181036000830152610d3681610cfa565b9050919050565b7f46696c65206e616d652069732072657175697265642e00000000000000000000600082015250565b6000610d73601683610756565b9150610d7e82610d3d565b602082019050919050565b60006020820190508181036000830152610da281610d66565b9050919050565b7f496e76616c69642075706c6f6164657220616464726573732e00000000000000600082015250565b6000610ddf601983610756565b9150610dea82610da9565b602082019050919050565b60006020820190508181036000830152610e0e81610dd2565b9050919050565b7f46696c652073697a65206d7573742062652067726561746572207468616e207a60008201527f65726f2e00000000000000000000000000000000000000000000000000000000602082015250565b6000610e71602483610756565b9150610e7c82610e15565b604082019050919050565b60006020820190508181036000830152610ea081610e64565b9050919050565b7f4e487b7100000000000000000000000000000000000000000000000000000000600052601160045260246000fd5b6000610ee1826107fd565b91507fffffffffffffffffffffffffffffffffffffffffffffffffffffffffffffffff8203610f1357610f12610ea7565b5b600182019050919050565b60008190508160005260206000209050919050565b60006020601f8301049050919050565b600082821b905092915050565b600060088302610f807fffffffffffffffffffffffffffffffffffffffffffffffffffffffffffffffff82610f43565b610f8a8683610f43565b95508019841693508086168417925050509392505050565b6000819050919050565b6000610fc7610fc2610fbd846107fd565b610fa2565b6107fd565b9050919050565b6000819050919050565b610fe183610fac565b610ff5610fed82610fce565b848454610f50565b825550505050565b600090565b61100a610ffd565b611015818484610fd8565b505050565b5b818110156110395761102e600082611002565b60018101905061101b565b5050565b601f82111561107e5761104f81610f1e565b61105884610f33565b81016020851015611067578190505b61107b61107385610f33565b83018261101a565b50505b505050565b600082821c905092915050565b60006110a160001984600802611083565b1980831691505092915050565b60006110ba8383611090565b9150826002028217905092915050565b6110d38261074b565b67ffffffffffffffff8111156110ec576110eb61084f565b5b6110f68254610bc8565b61110182828561103d565b600060209050601f8311600181146111345760008415611122578287015190505b61112c85826110ae565b865550611194565b601f19841661114286610f1e565b60005b8281101561116a57848901518255600182019150602085019450602081019050611145565b868310156111875784890151611183601f891682611090565b8355505b6001600288020188555050505b50505050505056fea2646970667358221220988e825b8fb773b5e7034b4d029e3118836f9b23e9a14bc26822dc18be61c78864736f6c63430008140033",
          "opcodes": "PUSH1 0x80 PUSH1 0x40 MSTORE PUSH1 0x40 MLOAD DUP1 PUSH1 0x40 ADD PUSH1 0x40 MSTORE DUP1 PUSH1 0x8 DUP2 MSTORE PUSH1 0x20 ADD PUSH32 0x4453746F72616765000000000000000000000000000000000000000000000000 DUP2 MSTORE POP PUSH1 0x0 SWAP1 DUP2 PUSH3 0x4A SWAP2 SWAP1 PUSH3 0x2DE JUMP JUMPDEST POP PUSH1 0x0 PUSH1 0x1 SSTORE CALLVALUE DUP1 ISZERO PUSH3 0x5D JUMPI PUSH1 0x0 DUP1 REVERT JUMPDEST POP PUSH3 0x3C5 JUMP JUMPDEST PUSH1 0x0 DUP2 MLOAD SWAP1 POP SWAP2 SWAP1 POP JUMP JUMPDEST PUSH32 0x4E487B7100000000000000000000000000000000000000000000000000000000 PUSH1 0x0 MSTORE PUSH1 0x41 PUSH1 0x4 MSTORE PUSH1 0x24 PUSH1 0x0 REVERT JUMPDEST PUSH32 0x4E487B7100000000000000000000000000000000000000000000000000000000 PUSH1 0x0 MSTORE PUSH1 0x22 PUSH1 0x4 MSTORE PUSH1 0x24 PUSH1 0x0 REVERT JUMPDEST PUSH1 0x0 PUSH1 0x2 DUP3 DIV SWAP1 POP PUSH1 0x1 DUP3 AND DUP1 PUSH3 0xE6 JUMPI PUSH1 0x7F DUP3 AND SWAP2 POP JUMPDEST PUSH1 0x20 DUP3 LT DUP2 SUB PUSH3 0xFC JUMPI PUSH3 0xFB PUSH3 0x9E JUMP JUMPDEST JUMPDEST POP SWAP2 SWAP1 POP JUMP JUMPDEST PUSH1 0x0 DUP2 SWAP1 POP DUP2 PUSH1 0x0 MSTORE PUSH1 0x20 PUSH1 0x0 KECCAK256 SWAP1 POP SWAP2 SWAP1 POP JUMP JUMPDEST PUSH1 0x0 PUSH1 0x20 PUSH1 0x1F DUP4 ADD DIV SWAP1 POP SWAP2 SWAP1 POP JUMP JUMPDEST PUSH1 0x0 DUP3 DUP3 SHL SWAP1 POP SWAP3 SWAP2 POP POP JUMP JUMPDEST PUSH1 0x0 PUSH1 0x8 DUP4 MUL PUSH3 0x166 PUSH32 0xFFFFFFFFFFFFFFFFFFFFFFFFFFFFFFFFFFFFFFFFFFFFFFFFFFFFFFFFFFFFFFFF DUP3 PUSH3 0x127 JUMP JUMPDEST PUSH3 0x172 DUP7 DUP4 PUSH3 0x127 JUMP JUMPDEST SWAP6 POP DUP1 NOT DUP5 AND SWAP4 POP DUP1 DUP7 AND DUP5 OR SWAP3 POP POP POP SWAP4 SWAP3 POP POP POP JUMP JUMPDEST PUSH1 0x0 DUP2 SWAP1 POP SWAP2 SWAP1 POP JUMP JUMPDEST PUSH1 0x0 DUP2 SWAP1 POP SWAP2 SWAP1 POP JUMP JUMPDEST PUSH1 0x0 PUSH3 0x1BF PUSH3 0x1B9 PUSH3 0x1B3 DUP5 PUSH3 0x18A JUMP JUMPDEST PUSH3 0x194 JUMP JUMPDEST PUSH3 0x18A JUMP JUMPDEST SWAP1 POP SWAP2 SWAP1 POP JUMP JUMPDEST PUSH1 0x0 DUP2 SWAP1 POP SWAP2 SWAP1 POP JUMP JUMPDEST PUSH3 0x1DB DUP4 PUSH3 0x19E JUMP JUMPDEST PUSH3 0x1F3 PUSH3 0x1EA DUP3 PUSH3 0x1C6 JUMP JUMPDEST DUP5 DUP5 SLOAD PUSH3 0x134 JUMP JUMPDEST DUP3 SSTORE POP POP POP POP JUMP JUMPDEST PUSH1 0x0 SWAP1 JUMP JUMPDEST PUSH3 0x20A PUSH3 0x1FB JUMP JUMPDEST PUSH3 0x217 DUP2 DUP5 DUP5 PUSH3 0x1D0 JUMP JUMPDEST POP POP POP JUMP JUMPDEST JUMPDEST DUP2 DUP2 LT ISZERO PUSH3 0x23F JUMPI PUSH3 0x233 PUSH1 0x0 DUP3 PUSH3 0x200 JUMP JUMPDEST PUSH1 0x1 DUP2 ADD SWAP1 POP PUSH3 0x21D JUMP JUMPDEST POP POP JUMP JUMPDEST PUSH1 0x1F DUP3 GT ISZERO PUSH3 0x28E JUMPI PUSH3 0x258 DUP2 PUSH3 0x102 JUMP JUMPDEST PUSH3 0x263 DUP5 PUSH3 0x117 JUMP JUMPDEST DUP2 ADD PUSH1 0x20 DUP6 LT ISZERO PUSH3 0x273 JUMPI DUP2 SWAP1 POP JUMPDEST PUSH3 0x28B PUSH3 0x282 DUP6 PUSH3 0x117 JUMP JUMPDEST DUP4 ADD DUP3 PUSH3 0x21C JUMP JUMPDEST POP POP JUMPDEST POP POP POP JUMP JUMPDEST PUSH1 0x0 DUP3 DUP3 SHR SWAP1 POP SWAP3 SWAP2 POP POP JUMP JUMPDEST PUSH1 0x0 PUSH3 0x2B3 PUSH1 0x0 NOT DUP5 PUSH1 0x8 MUL PUSH3 0x293 JUMP JUMPDEST NOT DUP1 DUP4 AND SWAP2 POP POP SWAP3 SWAP2 POP POP JUMP JUMPDEST PUSH1 0x0 PUSH3 0x2CE DUP4 DUP4 PUSH3 0x2A0 JUMP JUMPDEST SWAP2 POP DUP3 PUSH1 0x2 MUL DUP3 OR SWAP1 POP SWAP3 SWAP2 POP POP JUMP JUMPDEST PUSH3 0x2E9 DUP3 PUSH3 0x64 JUMP JUMPDEST PUSH8 0xFFFFFFFFFFFFFFFF DUP2 GT ISZERO PUSH3 0x305 JUMPI PUSH3 0x304 PUSH3 0x6F JUMP JUMPDEST JUMPDEST PUSH3 0x311 DUP3 SLOAD PUSH3 0xCD JUMP JUMPDEST PUSH3 0x31E DUP3 DUP3 DUP6 PUSH3 0x243 JUMP JUMPDEST PUSH1 0x0 PUSH1 0x20 SWAP1 POP PUSH1 0x1F DUP4 GT PUSH1 0x1 DUP2 EQ PUSH3 0x356 JUMPI PUSH1 0x0 DUP5 ISZERO PUSH3 0x341 JUMPI DUP3 DUP8 ADD MLOAD SWAP1 POP JUMPDEST PUSH3 0x34D DUP6 DUP3 PUSH3 0x2C0 JUMP JUMPDEST DUP7 SSTORE POP PUSH3 0x3BD JUMP JUMPDEST PUSH1 0x1F NOT DUP5 AND PUSH3 0x366 DUP7 PUSH3 0x102 JUMP JUMPDEST PUSH1 0x0 JUMPDEST DUP3 DUP2 LT ISZERO PUSH3 0x390 JUMPI DUP5 DUP10 ADD MLOAD DUP3 SSTORE PUSH1 0x1 DUP3 ADD SWAP2 POP PUSH1 0x20 DUP6 ADD SWAP5 POP PUSH1 0x20 DUP2 ADD SWAP1 POP PUSH3 0x369 JUMP JUMPDEST DUP7 DUP4 LT ISZERO PUSH3 0x3B0 JUMPI DUP5 DUP10 ADD MLOAD PUSH3 0x3AC PUSH1 0x1F DUP10 AND DUP3 PUSH3 0x2A0 JUMP JUMPDEST DUP4 SSTORE POP JUMPDEST PUSH1 0x1 PUSH1 0x2 DUP9 MUL ADD DUP9 SSTORE POP POP POP JUMPDEST POP POP POP POP POP POP JUMP JUMPDEST PUSH2 0x11D2 DUP1 PUSH3 0x3D5 PUSH1 0x0 CODECOPY PUSH1 0x0 RETURN INVALID PUSH1 0x80 PUSH1 0x40 MSTORE CALLVALUE DUP1 ISZERO PUSH2 0x10 JUMPI PUSH1 0x0 DUP1 REVERT JUMPDEST POP PUSH1 0x4 CALLDATASIZE LT PUSH2 0x4C JUMPI PUSH1 0x0 CALLDATALOAD PUSH1 0xE0 SHR DUP1 PUSH4 0x6FDDE03 EQ PUSH2 0x51 JUMPI DUP1 PUSH4 0x43953519 EQ PUSH2 0x6F JUMPI DUP1 PUSH4 0xE82D9D33 EQ PUSH2 0x8D JUMPI DUP1 PUSH4 0xF4C714B4 EQ PUSH2 0xA9 JUMPI JUMPDEST PUSH1 0x0 DUP1 REVERT JUMPDEST PUSH2 0x59 PUSH2 0xE0 JUMP JUMPDEST PUSH1 0x40 MLOAD PUSH2 0x66 SWAP2 SWAP1 PUSH2 0x7DB JUMP JUMPDEST PUSH1 0x40 MLOAD DUP1 SWAP2 SUB SWAP1 RETURN JUMPDEST PUSH2 0x77 PUSH2 0x16E JUMP JUMPDEST PUSH1 0x40 MLOAD PUSH2 0x84 SWAP2 SWAP1 PUSH2 0x816 JUMP JUMPDEST PUSH1 0x40 MLOAD DUP1 SWAP2 SUB SWAP1 RETURN JUMPDEST PUSH2 0xA7 PUSH1 0x4 DUP1 CALLDATASIZE SUB DUP2 ADD SWAP1 PUSH2 0xA2 SWAP2 SWAP1 PUSH2 0x9A6 JUMP JUMPDEST PUSH2 0x174 JUMP JUMPDEST STOP JUMPDEST PUSH2 0xC3 PUSH1 0x4 DUP1 CALLDATASIZE SUB DUP2 ADD SWAP1 PUSH2 0xBE SWAP2 SWAP1 PUSH2 0xA91 JUMP JUMPDEST PUSH2 0x4C3 JUMP JUMPDEST PUSH1 0x40 MLOAD PUSH2 0xD7 SWAP9 SWAP8 SWAP7 SWAP6 SWAP5 SWAP4 SWAP3 SWAP2 SWAP1 PUSH2 0xAFF JUMP JUMPDEST PUSH1 0x40 MLOAD DUP1 SWAP2 SUB SWAP1 RETURN JUMPDEST PUSH1 0x0 DUP1 SLOAD PUSH2 0xED SWAP1 PUSH2 0xBC8 JUMP JUMPDEST DUP1 PUSH1 0x1F ADD PUSH1 0x20 DUP1 SWAP2 DIV MUL PUSH1 0x20 ADD PUSH1 0x40 MLOAD SWAP1 DUP2 ADD PUSH1 0x40 MSTORE DUP1 SWAP3 SWAP2 SWAP1 DUP2 DUP2 MSTORE PUSH1 0x20 ADD DUP3 DUP1 SLOAD PUSH2 0x119 SWAP1 PUSH2 0xBC8 JUMP JUMPDEST DUP1 ISZERO PUSH2 0x166 JUMPI DUP1 PUSH1 0x1F LT PUSH2 0x13B JUMPI PUSH2 0x100 DUP1 DUP4 SLOAD DIV MUL DUP4 MSTORE SWAP2 PUSH1 0x20 ADD SWAP2 PUSH2 0x166 JUMP JUMPDEST DUP3 ADD SWAP2 SWAP1 PUSH1 0x0 MSTORE PUSH1 0x20 PUSH1 0x0 KECCAK256 SWAP1 JUMPDEST DUP2 SLOAD DUP2 MSTORE SWAP1 PUSH1 0x1 ADD SWAP1 PUSH1 0x20 ADD DUP1 DUP4 GT PUSH2 0x149 JUMPI DUP3 SWAP1 SUB PUSH1 0x1F AND DUP3 ADD SWAP2 JUMPDEST POP POP POP POP POP DUP2 JUMP JUMPDEST PUSH1 0x1 SLOAD DUP2 JUMP JUMPDEST PUSH1 0x0 DUP6 MLOAD GT PUSH2 0x1B8 JUMPI PUSH1 0x40 MLOAD PUSH32 0x8C379A000000000000000000000000000000000000000000000000000000000 DUP2 MSTORE PUSH1 0x4 ADD PUSH2 0x1AF SWAP1 PUSH2 0xC45 JUMP JUMPDEST PUSH1 0x40 MLOAD DUP1 SWAP2 SUB SWAP1 REVERT JUMPDEST PUSH1 0x0 DUP4 MLOAD GT PUSH2 0x1FC JUMPI PUSH1 0x40 MLOAD PUSH32 0x8C379A000000000000000000000000000000000000000000000000000000000 DUP2 MSTORE PUSH1 0x4 ADD PUSH2 0x1F3 SWAP1 PUSH2 0xCB1 JUMP JUMPDEST PUSH1 0x40 MLOAD DUP1 SWAP2 SUB SWAP1 REVERT JUMPDEST PUSH1 0x0 DUP2 MLOAD GT PUSH2 0x240 JUMPI PUSH1 0x40 MLOAD PUSH32 0x8C379A000000000000000000000000000000000000000000000000000000000 DUP2 MSTORE PUSH1 0x4 ADD PUSH2 0x237 SWAP1 PUSH2 0xD1D JUMP JUMPDEST PUSH1 0x40 MLOAD DUP1 SWAP2 SUB SWAP1 REVERT JUMPDEST PUSH1 0x0 DUP3 MLOAD GT PUSH2 0x284 JUMPI PUSH1 0x40 MLOAD PUSH32 0x8C379A000000000000000000000000000000000000000000000000000000000 DUP2 MSTORE PUSH1 0x4 ADD PUSH2 0x27B SWAP1 PUSH2 0xD89 JUMP JUMPDEST PUSH1 0x40 MLOAD DUP1 SWAP2 SUB SWAP1 REVERT JUMPDEST PUSH1 0x0 PUSH20 0xFFFFFFFFFFFFFFFFFFFFFFFFFFFFFFFFFFFFFFFF AND CALLER PUSH20 0xFFFFFFFFFFFFFFFFFFFFFFFFFFFFFFFFFFFFFFFF AND SUB PUSH2 0x2F3 JUMPI PUSH1 0x40 MLOAD PUSH32 0x8C379A000000000000000000000000000000000000000000000000000000000 DUP2 MSTORE PUSH1 0x4 ADD PUSH2 0x2EA SWAP1 PUSH2 0xDF5 JUMP JUMPDEST PUSH1 0x40 MLOAD DUP1 SWAP2 SUB SWAP1 REVERT JUMPDEST PUSH1 0x0 DUP5 GT PUSH2 0x336 JUMPI PUSH1 0x40 MLOAD PUSH32 0x8C379A000000000000000000000000000000000000000000000000000000000 DUP2 MSTORE PUSH1 0x4 ADD PUSH2 0x32D SWAP1 PUSH2 0xE87 JUMP JUMPDEST PUSH1 0x40 MLOAD DUP1 SWAP2 SUB SWAP1 REVERT JUMPDEST PUSH1 0x1 PUSH1 0x0 DUP2 SLOAD DUP1 SWAP3 SWAP2 SWAP1 PUSH2 0x349 SWAP1 PUSH2 0xED6 JUMP JUMPDEST SWAP2 SWAP1 POP SSTORE POP PUSH1 0x40 MLOAD DUP1 PUSH2 0x100 ADD PUSH1 0x40 MSTORE DUP1 PUSH1 0x1 SLOAD DUP2 MSTORE PUSH1 0x20 ADD DUP7 DUP2 MSTORE PUSH1 0x20 ADD DUP6 DUP2 MSTORE PUSH1 0x20 ADD DUP5 DUP2 MSTORE PUSH1 0x20 ADD DUP4 DUP2 MSTORE PUSH1 0x20 ADD DUP3 DUP2 MSTORE PUSH1 0x20 ADD TIMESTAMP DUP2 MSTORE PUSH1 0x20 ADD CALLER PUSH20 0xFFFFFFFFFFFFFFFFFFFFFFFFFFFFFFFFFFFFFFFF AND DUP2 MSTORE POP PUSH1 0x2 PUSH1 0x0 PUSH1 0x1 SLOAD DUP2 MSTORE PUSH1 0x20 ADD SWAP1 DUP2 MSTORE PUSH1 0x20 ADD PUSH1 0x0 KECCAK256 PUSH1 0x0 DUP3 ADD MLOAD DUP2 PUSH1 0x0 ADD SSTORE PUSH1 0x20 DUP3 ADD MLOAD DUP2 PUSH1 0x1 ADD SWAP1 DUP2 PUSH2 0x3D4 SWAP2 SWAP1 PUSH2 0x10CA JUMP JUMPDEST POP PUSH1 0x40 DUP3 ADD MLOAD DUP2 PUSH1 0x2 ADD SSTORE PUSH1 0x60 DUP3 ADD MLOAD DUP2 PUSH1 0x3 ADD SWAP1 DUP2 PUSH2 0x3F4 SWAP2 SWAP1 PUSH2 0x10CA JUMP JUMPDEST POP PUSH1 0x80 DUP3 ADD MLOAD DUP2 PUSH1 0x4 ADD SWAP1 DUP2 PUSH2 0x40A SWAP2 SWAP1 PUSH2 0x10CA JUMP JUMPDEST POP PUSH1 0xA0 DUP3 ADD MLOAD DUP2 PUSH1 0x5 ADD SWAP1 DUP2 PUSH2 0x420 SWAP2 SWAP1 PUSH2 0x10CA JUMP JUMPDEST POP PUSH1 0xC0 DUP3 ADD MLOAD DUP2 PUSH1 0x6 ADD SSTORE PUSH1 0xE0 DUP3 ADD MLOAD DUP2 PUSH1 0x7 ADD PUSH1 0x0 PUSH2 0x100 EXP DUP2 SLOAD DUP2 PUSH20 0xFFFFFFFFFFFFFFFFFFFFFFFFFFFFFFFFFFFFFFFF MUL NOT AND SWAP1 DUP4 PUSH20 0xFFFFFFFFFFFFFFFFFFFFFFFFFFFFFFFFFFFFFFFF AND MUL OR SWAP1 SSTORE POP SWAP1 POP POP PUSH32 0x6E95BBAA37A5FDEC42A312E049DEA2FE6160EBE659214D3409B4F91F164C2F52 PUSH1 0x1 SLOAD DUP7 DUP7 DUP7 DUP7 DUP7 TIMESTAMP CALLER PUSH1 0x40 MLOAD PUSH2 0x4B4 SWAP9 SWAP8 SWAP7 SWAP6 SWAP5 SWAP4 SWAP3 SWAP2 SWAP1 PUSH2 0xAFF JUMP JUMPDEST PUSH1 0x40 MLOAD DUP1 SWAP2 SUB SWAP1 LOG1 POP POP POP POP POP JUMP JUMPDEST PUSH1 0x2 PUSH1 0x20 MSTORE DUP1 PUSH1 0x0 MSTORE PUSH1 0x40 PUSH1 0x0 KECCAK256 PUSH1 0x0 SWAP2 POP SWAP1 POP DUP1 PUSH1 0x0 ADD SLOAD SWAP1 DUP1 PUSH1 0x1 ADD DUP1 SLOAD PUSH2 0x4EC SWAP1 PUSH2 0xBC8 JUMP JUMPDEST DUP1 PUSH1 0x1F ADD PUSH1 0x20 DUP1 SWAP2 DIV MUL PUSH1 0x20 ADD PUSH1 0x40 MLOAD SWAP1 DUP2 ADD PUSH1 0x40 MSTORE DUP1 SWAP3 SWAP2 SWAP1 DUP2 DUP2 MSTORE PUSH1 0x20 ADD DUP3 DUP1 SLOAD PUSH2 0x518 SWAP1 PUSH2 0xBC8 JUMP JUMPDEST DUP1 ISZERO PUSH2 0x565 JUMPI DUP1 PUSH1 0x1F LT PUSH2 0x53A JUMPI PUSH2 0x100 DUP1 DUP4 SLOAD DIV MUL DUP4 MSTORE SWAP2 PUSH1 0x20 ADD SWAP2 PUSH2 0x565 JUMP JUMPDEST DUP3 ADD SWAP2 SWAP1 PUSH1 0x0 MSTORE PUSH1 0x20 PUSH1 0x0 KECCAK256 SWAP1 JUMPDEST DUP2 SLOAD DUP2 MSTORE SWAP1 PUSH1 0x1 ADD SWAP1 PUSH1 0x20 ADD DUP1 DUP4 GT PUSH2 0x548 JUMPI DUP3 SWAP1 SUB PUSH1 0x1F AND DUP3 ADD SWAP2 JUMPDEST POP POP POP POP POP SWAP1 DUP1 PUSH1 0x2 ADD SLOAD SWAP1 DUP1 PUSH1 0x3 ADD DUP1 SLOAD PUSH2 0x580 SWAP1 PUSH2 0xBC8 JUMP JUMPDEST DUP1 PUSH1 0x1F ADD PUSH1 0x20 DUP1 SWAP2 DIV MUL PUSH1 0x20 ADD PUSH1 0x40 MLOAD SWAP1 DUP2 ADD PUSH1 0x40 MSTORE DUP1 SWAP3 SWAP2 SWAP1 DUP2 DUP2 MSTORE PUSH1 0x20 ADD DUP3 DUP1 SLOAD PUSH2 0x5AC SWAP1 PUSH2 0xBC8 JUMP JUMPDEST DUP1 ISZERO PUSH2 0x5F9 JUMPI DUP1 PUSH1 0x1F LT PUSH2 0x5CE JUMPI PUSH2 0x100 DUP1 DUP4 SLOAD DIV MUL DUP4 MSTORE SWAP2 PUSH1 0x20 ADD SWAP2 PUSH2 0x5F9 JUMP JUMPDEST DUP3 ADD SWAP2 SWAP1 PUSH1 0x0 MSTORE PUSH1 0x20 PUSH1 0x0 KECCAK256 SWAP1 JUMPDEST DUP2 SLOAD DUP2 MSTORE SWAP1 PUSH1 0x1 ADD SWAP1 PUSH1 0x20 ADD DUP1 DUP4 GT PUSH2 0x5DC JUMPI DUP3 SWAP1 SUB PUSH1 0x1F AND DUP3 ADD SWAP2 JUMPDEST POP POP POP POP POP SWAP1 DUP1 PUSH1 0x4 ADD DUP1 SLOAD PUSH2 0x60E SWAP1 PUSH2 0xBC8 JUMP JUMPDEST DUP1 PUSH1 0x1F ADD PUSH1 0x20 DUP1 SWAP2 DIV MUL PUSH1 0x20 ADD PUSH1 0x40 MLOAD SWAP1 DUP2 ADD PUSH1 0x40 MSTORE DUP1 SWAP3 SWAP2 SWAP1 DUP2 DUP2 MSTORE PUSH1 0x20 ADD DUP3 DUP1 SLOAD PUSH2 0x63A SWAP1 PUSH2 0xBC8 JUMP JUMPDEST DUP1 ISZERO PUSH2 0x687 JUMPI DUP1 PUSH1 0x1F LT PUSH2 0x65C JUMPI PUSH2 0x100 DUP1 DUP4 SLOAD DIV MUL DUP4 MSTORE SWAP2 PUSH1 0x20 ADD SWAP2 PUSH2 0x687 JUMP JUMPDEST DUP3 ADD SWAP2 SWAP1 PUSH1 0x0 MSTORE PUSH1 0x20 PUSH1 0x0 KECCAK256 SWAP1 JUMPDEST DUP2 SLOAD DUP2 MSTORE SWAP1 PUSH1 0x1 ADD SWAP1 PUSH1 0x20 ADD DUP1 DUP4 GT PUSH2 0x66A JUMPI DUP3 SWAP1 SUB PUSH1 0x1F AND DUP3 ADD SWAP2 JUMPDEST POP POP POP POP POP SWAP1 DUP1 PUSH1 0x5 ADD DUP1 SLOAD PUSH2 0x69C SWAP1 PUSH2 0xBC8 JUMP JUMPDEST DUP1 PUSH1 0x1F ADD PUSH1 0x20 DUP1 SWAP2 DIV MUL PUSH1 0x20 ADD PUSH1 0x40 MLOAD SWAP1 DUP2 ADD PUSH1 0x40 MSTORE DUP1 SWAP3 SWAP2 SWAP1 DUP2 DUP2 MSTORE PUSH1 0x20 ADD DUP3 DUP1 SLOAD PUSH2 0x6C8 SWAP1 PUSH2 0xBC8 JUMP JUMPDEST DUP1 ISZERO PUSH2 0x715 JUMPI DUP1 PUSH1 0x1F LT PUSH2 0x6EA JUMPI PUSH2 0x100 DUP1 DUP4 SLOAD DIV MUL DUP4 MSTORE SWAP2 PUSH1 0x20 ADD SWAP2 PUSH2 0x715 JUMP JUMPDEST DUP3 ADD SWAP2 SWAP1 PUSH1 0x0 MSTORE PUSH1 0x20 PUSH1 0x0 KECCAK256 SWAP1 JUMPDEST DUP2 SLOAD DUP2 MSTORE SWAP1 PUSH1 0x1 ADD SWAP1 PUSH1 0x20 ADD DUP1 DUP4 GT PUSH2 0x6F8 JUMPI DUP3 SWAP1 SUB PUSH1 0x1F AND DUP3 ADD SWAP2 JUMPDEST POP POP POP POP POP SWAP1 DUP1 PUSH1 0x6 ADD SLOAD SWAP1 DUP1 PUSH1 0x7 ADD PUSH1 0x0 SWAP1 SLOAD SWAP1 PUSH2 0x100 EXP SWAP1 DIV PUSH20 0xFFFFFFFFFFFFFFFFFFFFFFFFFFFFFFFFFFFFFFFF AND SWAP1 POP DUP9 JUMP JUMPDEST PUSH1 0x0 DUP2 MLOAD SWAP1 POP SWAP2 SWAP1 POP JUMP JUMPDEST PUSH1 0x0 DUP3 DUP3 MSTORE PUSH1 0x20 DUP3 ADD SWAP1 POP SWAP3 SWAP2 POP POP JUMP JUMPDEST PUSH1 0x0 JUMPDEST DUP4 DUP2 LT ISZERO PUSH2 0x785 JUMPI DUP1 DUP3 ADD MLOAD DUP2 DUP5 ADD MSTORE PUSH1 0x20 DUP2 ADD SWAP1 POP PUSH2 0x76A JUMP JUMPDEST PUSH1 0x0 DUP5 DUP5 ADD MSTORE POP POP POP POP JUMP JUMPDEST PUSH1 0x0 PUSH1 0x1F NOT PUSH1 0x1F DUP4 ADD AND SWAP1 POP SWAP2 SWAP1 POP JUMP JUMPDEST PUSH1 0x0 PUSH2 0x7AD DUP3 PUSH2 0x74B JUMP JUMPDEST PUSH2 0x7B7 DUP2 DUP6 PUSH2 0x756 JUMP JUMPDEST SWAP4 POP PUSH2 0x7C7 DUP2 DUP6 PUSH1 0x20 DUP7 ADD PUSH2 0x767 JUMP JUMPDEST PUSH2 0x7D0 DUP2 PUSH2 0x791 JUMP JUMPDEST DUP5 ADD SWAP2 POP POP SWAP3 SWAP2 POP POP JUMP JUMPDEST PUSH1 0x0 PUSH1 0x20 DUP3 ADD SWAP1 POP DUP2 DUP2 SUB PUSH1 0x0 DUP4 ADD MSTORE PUSH2 0x7F5 DUP2 DUP5 PUSH2 0x7A2 JUMP JUMPDEST SWAP1 POP SWAP3 SWAP2 POP POP JUMP JUMPDEST PUSH1 0x0 DUP2 SWAP1 POP SWAP2 SWAP1 POP JUMP JUMPDEST PUSH2 0x810 DUP2 PUSH2 0x7FD JUMP JUMPDEST DUP3 MSTORE POP POP JUMP JUMPDEST PUSH1 0x0 PUSH1 0x20 DUP3 ADD SWAP1 POP PUSH2 0x82B PUSH1 0x0 DUP4 ADD DUP5 PUSH2 0x807 JUMP JUMPDEST SWAP3 SWAP2 POP POP JUMP JUMPDEST PUSH1 0x0 PUSH1 0x40 MLOAD SWAP1 POP SWAP1 JUMP JUMPDEST PUSH1 0x0 DUP1 REVERT JUMPDEST PUSH1 0x0 DUP1 REVERT JUMPDEST PUSH1 0x0 DUP1 REVERT JUMPDEST PUSH1 0x0 DUP1 REVERT JUMPDEST PUSH32 0x4E487B7100000000000000000000000000000000000000000000000000000000 PUSH1 0x0 MSTORE PUSH1 0x41 PUSH1 0x4 MSTORE PUSH1 0x24 PUSH1 0x0 REVERT JUMPDEST PUSH2 0x887 DUP3 PUSH2 0x791 JUMP JUMPDEST DUP2 ADD DUP2 DUP2 LT PUSH8 0xFFFFFFFFFFFFFFFF DUP3 GT OR ISZERO PUSH2 0x8A6 JUMPI PUSH2 0x8A5 PUSH2 0x84F JUMP JUMPDEST JUMPDEST DUP1 PUSH1 0x40 MSTORE POP POP POP JUMP JUMPDEST PUSH1 0x0 PUSH2 0x8B9 PUSH2 0x831 JUMP JUMPDEST SWAP1 POP PUSH2 0x8C5 DUP3 DUP3 PUSH2 0x87E JUMP JUMPDEST SWAP2 SWAP1 POP JUMP JUMPDEST PUSH1 0x0 PUSH8 0xFFFFFFFFFFFFFFFF DUP3 GT ISZERO PUSH2 0x8E5 JUMPI PUSH2 0x8E4 PUSH2 0x84F JUMP JUMPDEST JUMPDEST PUSH2 0x8EE DUP3 PUSH2 0x791 JUMP JUMPDEST SWAP1 POP PUSH1 0x20 DUP2 ADD SWAP1 POP SWAP2 SWAP1 POP JUMP JUMPDEST DUP3 DUP2 DUP4 CALLDATACOPY PUSH1 0x0 DUP4 DUP4 ADD MSTORE POP POP POP JUMP JUMPDEST PUSH1 0x0 PUSH2 0x91D PUSH2 0x918 DUP5 PUSH2 0x8CA JUMP JUMPDEST PUSH2 0x8AF JUMP JUMPDEST SWAP1 POP DUP3 DUP2 MSTORE PUSH1 0x20 DUP2 ADD DUP5 DUP5 DUP5 ADD GT ISZERO PUSH2 0x939 JUMPI PUSH2 0x938 PUSH2 0x84A JUMP JUMPDEST JUMPDEST PUSH2 0x944 DUP5 DUP3 DUP6 PUSH2 0x8FB JUMP JUMPDEST POP SWAP4 SWAP3 POP POP POP JUMP JUMPDEST PUSH1 0x0 DUP3 PUSH1 0x1F DUP4 ADD SLT PUSH2 0x961 JUMPI PUSH2 0x960 PUSH2 0x845 JUMP JUMPDEST JUMPDEST DUP2 CALLDATALOAD PUSH2 0x971 DUP5 DUP3 PUSH1 0x20 DUP7 ADD PUSH2 0x90A JUMP JUMPDEST SWAP2 POP POP SWAP3 SWAP2 POP POP JUMP JUMPDEST PUSH2 0x983 DUP2 PUSH2 0x7FD JUMP JUMPDEST DUP2 EQ PUSH2 0x98E JUMPI PUSH1 0x0 DUP1 REVERT JUMPDEST POP JUMP JUMPDEST PUSH1 0x0 DUP2 CALLDATALOAD SWAP1 POP PUSH2 0x9A0 DUP2 PUSH2 0x97A JUMP JUMPDEST SWAP3 SWAP2 POP POP JUMP JUMPDEST PUSH1 0x0 DUP1 PUSH1 0x0 DUP1 PUSH1 0x0 PUSH1 0xA0 DUP7 DUP9 SUB SLT ISZERO PUSH2 0x9C2 JUMPI PUSH2 0x9C1 PUSH2 0x83B JUMP JUMPDEST JUMPDEST PUSH1 0x0 DUP7 ADD CALLDATALOAD PUSH8 0xFFFFFFFFFFFFFFFF DUP2 GT ISZERO PUSH2 0x9E0 JUMPI PUSH2 0x9DF PUSH2 0x840 JUMP JUMPDEST JUMPDEST PUSH2 0x9EC DUP9 DUP3 DUP10 ADD PUSH2 0x94C JUMP JUMPDEST SWAP6 POP POP PUSH1 0x20 PUSH2 0x9FD DUP9 DUP3 DUP10 ADD PUSH2 0x991 JUMP JUMPDEST SWAP5 POP POP PUSH1 0x40 DUP7 ADD CALLDATALOAD PUSH8 0xFFFFFFFFFFFFFFFF DUP2 GT ISZERO PUSH2 0xA1E JUMPI PUSH2 0xA1D PUSH2 0x840 JUMP JUMPDEST JUMPDEST PUSH2 0xA2A DUP9 DUP3 DUP10 ADD PUSH2 0x94C JUMP JUMPDEST SWAP4 POP POP PUSH1 0x60 DUP7 ADD CALLDATALOAD PUSH8 0xFFFFFFFFFFFFFFFF DUP2 GT ISZERO PUSH2 0xA4B JUMPI PUSH2 0xA4A PUSH2 0x840 JUMP JUMPDEST JUMPDEST PUSH2 0xA57 DUP9 DUP3 DUP10 ADD PUSH2 0x94C JUMP JUMPDEST SWAP3 POP POP PUSH1 0x80 DUP7 ADD CALLDATALOAD PUSH8 0xFFFFFFFFFFFFFFFF DUP2 GT ISZERO PUSH2 0xA78 JUMPI PUSH2 0xA77 PUSH2 0x840 JUMP JUMPDEST JUMPDEST PUSH2 0xA84 DUP9 DUP3 DUP10 ADD PUSH2 0x94C JUMP JUMPDEST SWAP2 POP POP SWAP3 SWAP6 POP SWAP3 SWAP6 SWAP1 SWAP4 POP JUMP JUMPDEST PUSH1 0x0 PUSH1 0x20 DUP3 DUP5 SUB SLT ISZERO PUSH2 0xAA7 JUMPI PUSH2 0xAA6 PUSH2 0x83B JUMP JUMPDEST JUMPDEST PUSH1 0x0 PUSH2 0xAB5 DUP5 DUP3 DUP6 ADD PUSH2 0x991 JUMP JUMPDEST SWAP2 POP POP SWAP3 SWAP2 POP POP JUMP JUMPDEST PUSH1 0x0 PUSH20 0xFFFFFFFFFFFFFFFFFFFFFFFFFFFFFFFFFFFFFFFF DUP3 AND SWAP1 POP SWAP2 SWAP1 POP JUMP JUMPDEST PUSH1 0x0 PUSH2 0xAE9 DUP3 PUSH2 0xABE JUMP JUMPDEST SWAP1 POP SWAP2 SWAP1 POP JUMP JUMPDEST PUSH2 0xAF9 DUP2 PUSH2 0xADE JUMP JUMPDEST DUP3 MSTORE POP POP JUMP JUMPDEST PUSH1 0x0 PUSH2 0x100 DUP3 ADD SWAP1 POP PUSH2 0xB15 PUSH1 0x0 DUP4 ADD DUP12 PUSH2 0x807 JUMP JUMPDEST DUP2 DUP2 SUB PUSH1 0x20 DUP4 ADD MSTORE PUSH2 0xB27 DUP2 DUP11 PUSH2 0x7A2 JUMP JUMPDEST SWAP1 POP PUSH2 0xB36 PUSH1 0x40 DUP4 ADD DUP10 PUSH2 0x807 JUMP JUMPDEST DUP2 DUP2 SUB PUSH1 0x60 DUP4 ADD MSTORE PUSH2 0xB48 DUP2 DUP9 PUSH2 0x7A2 JUMP JUMPDEST SWAP1 POP DUP2 DUP2 SUB PUSH1 0x80 DUP4 ADD MSTORE PUSH2 0xB5C DUP2 DUP8 PUSH2 0x7A2 JUMP JUMPDEST SWAP1 POP DUP2 DUP2 SUB PUSH1 0xA0 DUP4 ADD MSTORE PUSH2 0xB70 DUP2 DUP7 PUSH2 0x7A2 JUMP JUMPDEST SWAP1 POP PUSH2 0xB7F PUSH1 0xC0 DUP4 ADD DUP6 PUSH2 0x807 JUMP JUMPDEST PUSH2 0xB8C PUSH1 0xE0 DUP4 ADD DUP5 PUSH2 0xAF0 JUMP JUMPDEST SWAP10 SWAP9 POP POP POP POP POP POP POP POP POP JUMP JUMPDEST PUSH32 0x4E487B7100000000000000000000000000000000000000000000000000000000 PUSH1 0x0 MSTORE PUSH1 0x22 PUSH1 0x4 MSTORE PUSH1 0x24 PUSH1 0x0 REVERT JUMPDEST PUSH1 0x0 PUSH1 0x2 DUP3 DIV SWAP1 POP PUSH1 0x1 DUP3 AND DUP1 PUSH2 0xBE0 JUMPI PUSH1 0x7F DUP3 AND SWAP2 POP JUMPDEST PUSH1 0x20 DUP3 LT DUP2 SUB PUSH2 0xBF3 JUMPI PUSH2 0xBF2 PUSH2 0xB99 JUMP JUMPDEST JUMPDEST POP SWAP2 SWAP1 POP JUMP JUMPDEST PUSH32 0x46696C6520686173682069732072657175697265642E00000000000000000000 PUSH1 0x0 DUP3 ADD MSTORE POP JUMP JUMPDEST PUSH1 0x0 PUSH2 0xC2F PUSH1 0x16 DUP4 PUSH2 0x756 JUMP JUMPDEST SWAP2 POP PUSH2 0xC3A DUP3 PUSH2 0xBF9 JUMP JUMPDEST PUSH1 0x20 DUP3 ADD SWAP1 POP SWAP2 SWAP1 POP JUMP JUMPDEST PUSH1 0x0 PUSH1 0x20 DUP3 ADD SWAP1 POP DUP2 DUP2 SUB PUSH1 0x0 DUP4 ADD MSTORE PUSH2 0xC5E DUP2 PUSH2 0xC22 JUMP JUMPDEST SWAP1 POP SWAP2 SWAP1 POP JUMP JUMPDEST PUSH32 0x46696C6520747970652069732072657175697265642E00000000000000000000 PUSH1 0x0 DUP3 ADD MSTORE POP JUMP JUMPDEST PUSH1 0x0 PUSH2 0xC9B PUSH1 0x16 DUP4 PUSH2 0x756 JUMP JUMPDEST SWAP2 POP PUSH2 0xCA6 DUP3 PUSH2 0xC65 JUMP JUMPDEST PUSH1 0x20 DUP3 ADD SWAP1 POP SWAP2 SWAP1 POP JUMP JUMPDEST PUSH1 0x0 PUSH1 0x20 DUP3 ADD SWAP1 POP DUP2 DUP2 SUB PUSH1 0x0 DUP4 ADD MSTORE PUSH2 0xCCA DUP2 PUSH2 0xC8E JUMP JUMPDEST SWAP1 POP SWAP2 SWAP1 POP JUMP JUMPDEST PUSH32 0x46696C65206465736372697074696F6E2069732072657175697265642E000000 PUSH1 0x0 DUP3 ADD MSTORE POP JUMP JUMPDEST PUSH1 0x0 PUSH2 0xD07 PUSH1 0x1D DUP4 PUSH2 0x756 JUMP JUMPDEST SWAP2 POP PUSH2 0xD12 DUP3 PUSH2 0xCD1 JUMP JUMPDEST PUSH1 0x20 DUP3 ADD SWAP1 POP SWAP2 SWAP1 POP JUMP JUMPDEST PUSH1 0x0 PUSH1 0x20 DUP3 ADD SWAP1 POP DUP2 DUP2 SUB PUSH1 0x0 DUP4 ADD MSTORE PUSH2 0xD36 DUP2 PUSH2 0xCFA JUMP JUMPDEST SWAP1 POP SWAP2 SWAP1 POP JUMP JUMPDEST PUSH32 0x46696C65206E616D652069732072657175697265642E00000000000000000000 PUSH1 0x0 DUP3 ADD MSTORE POP JUMP JUMPDEST PUSH1 0x0 PUSH2 0xD73 PUSH1 0x16 DUP4 PUSH2 0x756 JUMP JUMPDEST SWAP2 POP PUSH2 0xD7E DUP3 PUSH2 0xD3D JUMP JUMPDEST PUSH1 0x20 DUP3 ADD SWAP1 POP SWAP2 SWAP1 POP JUMP JUMPDEST PUSH1 0x0 PUSH1 0x20 DUP3 ADD SWAP1 POP DUP2 DUP2 SUB PUSH1 0x0 DUP4 ADD MSTORE PUSH2 0xDA2 DUP2 PUSH2 0xD66 JUMP JUMPDEST SWAP1 POP SWAP2 SWAP1 POP JUMP JUMPDEST PUSH32 0x496E76616C69642075706C6F6164657220616464726573732E00000000000000 PUSH1 0x0 DUP3 ADD MSTORE POP JUMP JUMPDEST PUSH1 0x0 PUSH2 0xDDF PUSH1 0x19 DUP4 PUSH2 0x756 JUMP JUMPDEST SWAP2 POP PUSH2 0xDEA DUP3 PUSH2 0xDA9 JUMP JUMPDEST PUSH1 0x20 DUP3 ADD SWAP1 POP SWAP2 SWAP1 POP JUMP JUMPDEST PUSH1 0x0 PUSH1 0x20 DUP3 ADD SWAP1 POP DUP2 DUP2 SUB PUSH1 0x0 DUP4 ADD MSTORE PUSH2 0xE0E DUP2 PUSH2 0xDD2 JUMP JUMPDEST SWAP1 POP SWAP2 SWAP1 POP JUMP JUMPDEST PUSH32 0x46696C652073697A65206D7573742062652067726561746572207468616E207A PUSH1 0x0 DUP3 ADD MSTORE PUSH32 0x65726F2E00000000000000000000000000000000000000000000000000000000 PUSH1 0x20 DUP3 ADD MSTORE POP JUMP JUMPDEST PUSH1 0x0 PUSH2 0xE71 PUSH1 0x24 DUP4 PUSH2 0x756 JUMP JUMPDEST SWAP2 POP PUSH2 0xE7C DUP3 PUSH2 0xE15 JUMP JUMPDEST PUSH1 0x40 DUP3 ADD SWAP1 POP SWAP2 SWAP1 POP JUMP JUMPDEST PUSH1 0x0 PUSH1 0x20 DUP3 ADD SWAP1 POP DUP2 DUP2 SUB PUSH1 0x0 DUP4 ADD MSTORE PUSH2 0xEA0 DUP2 PUSH2 0xE64 JUMP JUMPDEST SWAP1 POP SWAP2 SWAP1 POP JUMP JUMPDEST PUSH32 0x4E487B7100000000000000000000000000000000000000000000000000000000 PUSH1 0x0 MSTORE PUSH1 0x11 PUSH1 0x4 MSTORE PUSH1 0x24 PUSH1 0x0 REVERT JUMPDEST PUSH1 0x0 PUSH2 0xEE1 DUP3 PUSH2 0x7FD JUMP JUMPDEST SWAP2 POP PUSH32 0xFFFFFFFFFFFFFFFFFFFFFFFFFFFFFFFFFFFFFFFFFFFFFFFFFFFFFFFFFFFFFFFF DUP3 SUB PUSH2 0xF13 JUMPI PUSH2 0xF12 PUSH2 0xEA7 JUMP JUMPDEST JUMPDEST PUSH1 0x1 DUP3 ADD SWAP1 POP SWAP2 SWAP1 POP JUMP JUMPDEST PUSH1 0x0 DUP2 SWAP1 POP DUP2 PUSH1 0x0 MSTORE PUSH1 0x20 PUSH1 0x0 KECCAK256 SWAP1 POP SWAP2 SWAP1 POP JUMP JUMPDEST PUSH1 0x0 PUSH1 0x20 PUSH1 0x1F DUP4 ADD DIV SWAP1 POP SWAP2 SWAP1 POP JUMP JUMPDEST PUSH1 0x0 DUP3 DUP3 SHL SWAP1 POP SWAP3 SWAP2 POP POP JUMP JUMPDEST PUSH1 0x0 PUSH1 0x8 DUP4 MUL PUSH2 0xF80 PUSH32 0xFFFFFFFFFFFFFFFFFFFFFFFFFFFFFFFFFFFFFFFFFFFFFFFFFFFFFFFFFFFFFFFF DUP3 PUSH2 0xF43 JUMP JUMPDEST PUSH2 0xF8A DUP7 DUP4 PUSH2 0xF43 JUMP JUMPDEST SWAP6 POP DUP1 NOT DUP5 AND SWAP4 POP DUP1 DUP7 AND DUP5 OR SWAP3 POP POP POP SWAP4 SWAP3 POP POP POP JUMP JUMPDEST PUSH1 0x0 DUP2 SWAP1 POP SWAP2 SWAP1 POP JUMP JUMPDEST PUSH1 0x0 PUSH2 0xFC7 PUSH2 0xFC2 PUSH2 0xFBD DUP5 PUSH2 0x7FD JUMP JUMPDEST PUSH2 0xFA2 JUMP JUMPDEST PUSH2 0x7FD JUMP JUMPDEST SWAP1 POP SWAP2 SWAP1 POP JUMP JUMPDEST PUSH1 0x0 DUP2 SWAP1 POP SWAP2 SWAP1 POP JUMP JUMPDEST PUSH2 0xFE1 DUP4 PUSH2 0xFAC JUMP JUMPDEST PUSH2 0xFF5 PUSH2 0xFED DUP3 PUSH2 0xFCE JUMP JUMPDEST DUP5 DUP5 SLOAD PUSH2 0xF50 JUMP JUMPDEST DUP3 SSTORE POP POP POP POP JUMP JUMPDEST PUSH1 0x0 SWAP1 JUMP JUMPDEST PUSH2 0x100A PUSH2 0xFFD JUMP JUMPDEST PUSH2 0x1015 DUP2 DUP5 DUP5 PUSH2 0xFD8 JUMP JUMPDEST POP POP POP JUMP JUMPDEST JUMPDEST DUP2 DUP2 LT ISZERO PUSH2 0x1039 JUMPI PUSH2 0x102E PUSH1 0x0 DUP3 PUSH2 0x1002 JUMP JUMPDEST PUSH1 0x1 DUP2 ADD SWAP1 POP PUSH2 0x101B JUMP JUMPDEST POP POP JUMP JUMPDEST PUSH1 0x1F DUP3 GT ISZERO PUSH2 0x107E JUMPI PUSH2 0x104F DUP2 PUSH2 0xF1E JUMP JUMPDEST PUSH2 0x1058 DUP5 PUSH2 0xF33 JUMP JUMPDEST DUP2 ADD PUSH1 0x20 DUP6 LT ISZERO PUSH2 0x1067 JUMPI DUP2 SWAP1 POP JUMPDEST PUSH2 0x107B PUSH2 0x1073 DUP6 PUSH2 0xF33 JUMP JUMPDEST DUP4 ADD DUP3 PUSH2 0x101A JUMP JUMPDEST POP POP JUMPDEST POP POP POP JUMP JUMPDEST PUSH1 0x0 DUP3 DUP3 SHR SWAP1 POP SWAP3 SWAP2 POP POP JUMP JUMPDEST PUSH1 0x0 PUSH2 0x10A1 PUSH1 0x0 NOT DUP5 PUSH1 0x8 MUL PUSH2 0x1083 JUMP JUMPDEST NOT DUP1 DUP4 AND SWAP2 POP POP SWAP3 SWAP2 POP POP JUMP JUMPDEST PUSH1 0x0 PUSH2 0x10BA DUP4 DUP4 PUSH2 0x1090 JUMP JUMPDEST SWAP2 POP DUP3 PUSH1 0x2 MUL DUP3 OR SWAP1 POP SWAP3 SWAP2 POP POP JUMP JUMPDEST PUSH2 0x10D3 DUP3 PUSH2 0x74B JUMP JUMPDEST PUSH8 0xFFFFFFFFFFFFFFFF DUP2 GT ISZERO PUSH2 0x10EC JUMPI PUSH2 0x10EB PUSH2 0x84F JUMP JUMPDEST JUMPDEST PUSH2 0x10F6 DUP3 SLOAD PUSH2 0xBC8 JUMP JUMPDEST PUSH2 0x1101 DUP3 DUP3 DUP6 PUSH2 0x103D JUMP JUMPDEST PUSH1 0x0 PUSH1 0x20 SWAP1 POP PUSH1 0x1F DUP4 GT PUSH1 0x1 DUP2 EQ PUSH2 0x1134 JUMPI PUSH1 0x0 DUP5 ISZERO PUSH2 0x1122 JUMPI DUP3 DUP8 ADD MLOAD SWAP1 POP JUMPDEST PUSH2 0x112C DUP6 DUP3 PUSH2 0x10AE JUMP JUMPDEST DUP7 SSTORE POP PUSH2 0x1194 JUMP JUMPDEST PUSH1 0x1F NOT DUP5 AND PUSH2 0x1142 DUP7 PUSH2 0xF1E JUMP JUMPDEST PUSH1 0x0 JUMPDEST DUP3 DUP2 LT ISZERO PUSH2 0x116A JUMPI DUP5 DUP10 ADD MLOAD DUP3 SSTORE PUSH1 0x1 DUP3 ADD SWAP2 POP PUSH1 0x20 DUP6 ADD SWAP5 POP PUSH1 0x20 DUP2 ADD SWAP1 POP PUSH2 0x1145 JUMP JUMPDEST DUP7 DUP4 LT ISZERO PUSH2 0x1187 JUMPI DUP5 DUP10 ADD MLOAD PUSH2 0x1183 PUSH1 0x1F DUP10 AND DUP3 PUSH2 0x1090 JUMP JUMPDEST DUP4 SSTORE POP JUMPDEST PUSH1 0x1 PUSH1 0x2 DUP9 MUL ADD DUP9 SSTORE POP POP POP JUMPDEST POP POP POP POP POP POP JUMP INVALID LOG2 PUSH5 0x6970667358 0x22 SLT KECCAK256 SWAP9 DUP15 DUP3 JUMPDEST DUP16 0xB7 PUSH20 0xB5E7034B4D029E3118836F9B23E9A14BC26822DC XOR 0xBE PUSH2 0xC788 PUSH5 0x736F6C6343 STOP ADDMOD EQ STOP CALLER "
        },
        "methodIdentifiers": {
          "fileCount()": "43953519",
          "files(uint256)": "f4c714b4",
          "name()": "06fdde03",
          "uploadFile(string,uint256,string,string,string)": "e82d9d33"
        }
      }
    }
  }
}