{
  "_format": "hh-sol-artifact-1",
  "contractName": "DStorage",
  "sourceName": "contracts/FileStorage.sol",
  "abi": [
    {
      "anonymous": false,
      "inputs": [
        {
          "indexed": true,
          "internalType": "address",
          "name": "uploader",
          "type": "address"
        },
        {
          "indexed": false,
          "internalType": "string",
          "name": "name",
          "type": "string"
        },
        {
          "indexed": false,
          "internalType": "string",
          "name": "fileType",
          "type": "string"
        },
        {
          "indexed": false,
          "internalType": "string",
          "name": "ipfsHash",
          "type": "string"
        },
        {
          "indexed": false,
          "internalType": "uint256",
          "name": "timestamp",
          "type": "uint256"
        }
      ],
      "name": "FileUploaded",
      "type": "event"
    },
    {
      "inputs": [
        {
          "internalType": "address",
          "name": "",
          "type": "address"
        },
        {
          "internalType": "uint256",
          "name": "",
          "type": "uint256"
        }
      ],
      "name": "files",
      "outputs": [
        {
          "internalType": "string",
          "name": "name",
          "type": "string"
        },
        {
          "internalType": "string",
          "name": "fileType",
          "type": "string"
        },
        {
          "internalType": "string",
          "name": "ipfsHash",
          "type": "string"
        },
        {
          "internalType": "address",
          "name": "uploader",
          "type": "address"
        },
        {
          "internalType": "uint256",
          "name": "timestamp",
          "type": "uint256"
        }
      ],
      "stateMutability": "view",
      "type": "function"
    },
    {
      "inputs": [
        {
          "internalType": "address",
          "name": "_user",
          "type": "address"
        }
      ],
      "name": "getFilesByUser",
      "outputs": [
        {
          "components": [
            {
              "internalType": "string",
              "name": "name",
              "type": "string"
            },
            {
              "internalType": "string",
              "name": "fileType",
              "type": "string"
            },
            {
              "internalType": "string",
              "name": "ipfsHash",
              "type": "string"
            },
            {
              "internalType": "address",
              "name": "uploader",
              "type": "address"
            },
            {
              "internalType": "uint256",
              "name": "timestamp",
              "type": "uint256"
            }
          ],
          "internalType": "struct DStorage.File[]",
          "name": "",
          "type": "tuple[]"
        }
      ],
      "stateMutability": "view",
      "type": "function"
    },
    {
      "inputs": [
        {
          "internalType": "uint256",
          "name": "_index",
          "type": "uint256"
        }
      ],
      "name": "removeFile",
      "outputs": [],
      "stateMutability": "nonpayable",
      "type": "function"
    },
    {
      "inputs": [
        {
          "internalType": "string",
          "name": "_name",
          "type": "string"
        },
        {
          "internalType": "string",
          "name": "_fileType",
          "type": "string"
        },
        {
          "internalType": "string",
          "name": "_ipfsHash",
          "type": "string"
        }
      ],
      "name": "uploadFile",
      "outputs": [],
      "stateMutability": "nonpayable",
      "type": "function"
    }
  ],
  "bytecode": "0x608060405234801561001057600080fd5b506118f9806100206000396000f3fe608060405234801561001057600080fd5b506004361061004c5760003560e01c80632ba6978e14610051578063300332d31461008557806392bb481a146100b55780639926b03f146100d1575b600080fd5b61006b60048036038101906100669190610c44565b6100ed565b60405161007c959493929190610d32565b60405180910390f35b61009f600480360381019061009a9190610d9a565b6102f8565b6040516100ac9190610f75565b60405180910390f35b6100cf60048036038101906100ca91906110cc565b6105ab565b005b6100eb60048036038101906100e69190611173565b610809565b005b6000602052816000526040600020818154811061010957600080fd5b90600052602060002090600502016000915091505080600001805461012d906111cf565b80601f0160208091040260200160405190810160405280929190818152602001828054610159906111cf565b80156101a65780601f1061017b576101008083540402835291602001916101a6565b820191906000526020600020905b81548152906001019060200180831161018957829003601f168201915b5050505050908060010180546101bb906111cf565b80601f01602080910402602001604051908101604052809291908181526020018280546101e7906111cf565b80156102345780601f1061020957610100808354040283529160200191610234565b820191906000526020600020905b81548152906001019060200180831161021757829003601f168201915b505050505090806002018054610249906111cf565b80601f0160208091040260200160405190810160405280929190818152602001828054610275906111cf565b80156102c25780601f10610297576101008083540402835291602001916102c2565b820191906000526020600020905b8154815290600101906020018083116102a557829003601f168201915b5050505050908060030160009054906101000a900473ffffffffffffffffffffffffffffffffffffffff16908060040154905085565b60606000808373ffffffffffffffffffffffffffffffffffffffff1673ffffffffffffffffffffffffffffffffffffffff168152602001908152602001600020805480602002602001604051908101604052809291908181526020016000905b828210156105a057838290600052602060002090600502016040518060a001604052908160008201805461038b906111cf565b80601f01602080910402602001604051908101604052809291908181526020018280546103b7906111cf565b80156104045780601f106103d957610100808354040283529160200191610404565b820191906000526020600020905b8154815290600101906020018083116103e757829003601f168201915b5050505050815260200160018201805461041d906111cf565b80601f0160208091040260200160405190810160405280929190818152602001828054610449906111cf565b80156104965780601f1061046b57610100808354040283529160200191610496565b820191906000526020600020905b81548152906001019060200180831161047957829003601f168201915b505050505081526020016002820180546104af906111cf565b80601f01602080910402602001604051908101604052809291908181526020018280546104db906111cf565b80156105285780601f106104fd57610100808354040283529160200191610528565b820191906000526020600020905b81548152906001019060200180831161050b57829003601f168201915b505050505081526020016003820160009054906101000a900473ffffffffffffffffffffffffffffffffffffffff1673ffffffffffffffffffffffffffffffffffffffff1673ffffffffffffffffffffffffffffffffffffffff16815260200160048201548152505081526020019060010190610358565b505050509050919050565b60008351116105ef576040517f08c379a00000000000000000000000000000000000000000000000000000000081526004016105e69061124c565b60405180910390fd5b6000825111610633576040517f08c379a000000000000000000000000000000000000000000000000000000000815260040161062a906112b8565b60405180910390fd5b6000815111610677576040517f08c379a000000000000000000000000000000000000000000000000000000000815260040161066e90611324565b60405180910390fd5b6000803373ffffffffffffffffffffffffffffffffffffffff1673ffffffffffffffffffffffffffffffffffffffff1681526020019081526020016000206040518060a001604052808581526020018481526020018381526020013373ffffffffffffffffffffffffffffffffffffffff168152602001428152509080600181540180825580915050600190039060005260206000209060050201600090919091909150600082015181600001908161073091906114f0565b50602082015181600101908161074691906114f0565b50604082015181600201908161075c91906114f0565b5060608201518160030160006101000a81548173ffffffffffffffffffffffffffffffffffffffff021916908373ffffffffffffffffffffffffffffffffffffffff1602179055506080820151816004015550503373ffffffffffffffffffffffffffffffffffffffff167fa243d39caa4c5fa0efb41b7e3d59dcd1a7f72d5a6bc6c34a9bc20fcae079ead4848484426040516107fc94939291906115c2565b60405180910390a2505050565b6000803373ffffffffffffffffffffffffffffffffffffffff1673ffffffffffffffffffffffffffffffffffffffff16815260200190815260200160002080549050811061088c576040517f08c379a000000000000000000000000000000000000000000000000000000000815260040161088390611668565b60405180910390fd5b60008190505b60016000803373ffffffffffffffffffffffffffffffffffffffff1673ffffffffffffffffffffffffffffffffffffffff168152602001908152602001600020805490506108e091906116b7565b811015610a75576000803373ffffffffffffffffffffffffffffffffffffffff1673ffffffffffffffffffffffffffffffffffffffff16815260200190815260200160002060018261093291906116eb565b815481106109435761094261171f565b5b90600052602060002090600502016000803373ffffffffffffffffffffffffffffffffffffffff1673ffffffffffffffffffffffffffffffffffffffff16815260200190815260200160002082815481106109a1576109a061171f565b5b9060005260206000209060050201600082018160000190816109c39190611764565b50600182018160010190816109d89190611764565b50600282018160020190816109ed9190611764565b506003820160009054906101000a900473ffffffffffffffffffffffffffffffffffffffff168160030160006101000a81548173ffffffffffffffffffffffffffffffffffffffff021916908373ffffffffffffffffffffffffffffffffffffffff160217905550600482015481600401559050508080610a6d9061184c565b915050610892565b506000803373ffffffffffffffffffffffffffffffffffffffff1673ffffffffffffffffffffffffffffffffffffffff168152602001908152602001600020805480610ac457610ac3611894565b5b600190038181906000526020600020906005020160008082016000610ae99190610b3f565b600182016000610af99190610b3f565b600282016000610b099190610b3f565b6003820160006101000a81549073ffffffffffffffffffffffffffffffffffffffff021916905560048201600090555050905550565b508054610b4b906111cf565b6000825580601f10610b5d5750610b7c565b601f016020900490600052602060002090810190610b7b9190610b7f565b5b50565b5b80821115610b98576000816000905550600101610b80565b5090565b6000604051905090565b600080fd5b600080fd5b600073ffffffffffffffffffffffffffffffffffffffff82169050919050565b6000610bdb82610bb0565b9050919050565b610beb81610bd0565b8114610bf657600080fd5b50565b600081359050610c0881610be2565b92915050565b6000819050919050565b610c2181610c0e565b8114610c2c57600080fd5b50565b600081359050610c3e81610c18565b92915050565b60008060408385031215610c5b57610c5a610ba6565b5b6000610c6985828601610bf9565b9250506020610c7a85828601610c2f565b9150509250929050565b600081519050919050565b600082825260208201905092915050565b60005b83811015610cbe578082015181840152602081019050610ca3565b60008484015250505050565b6000601f19601f8301169050919050565b6000610ce682610c84565b610cf08185610c8f565b9350610d00818560208601610ca0565b610d0981610cca565b840191505092915050565b610d1d81610bd0565b82525050565b610d2c81610c0e565b82525050565b600060a0820190508181036000830152610d4c8188610cdb565b90508181036020830152610d608187610cdb565b90508181036040830152610d748186610cdb565b9050610d836060830185610d14565b610d906080830184610d23565b9695505050505050565b600060208284031215610db057610daf610ba6565b5b6000610dbe84828501610bf9565b91505092915050565b600081519050919050565b600082825260208201905092915050565b6000819050602082019050919050565b600082825260208201905092915050565b6000610e0f82610c84565b610e198185610df3565b9350610e29818560208601610ca0565b610e3281610cca565b840191505092915050565b610e4681610bd0565b82525050565b610e5581610c0e565b82525050565b600060a0830160008301518482036000860152610e788282610e04565b91505060208301518482036020860152610e928282610e04565b91505060408301518482036040860152610eac8282610e04565b9150506060830151610ec16060860182610e3d565b506080830151610ed46080860182610e4c565b508091505092915050565b6000610eeb8383610e5b565b905092915050565b6000602082019050919050565b6000610f0b82610dc7565b610f158185610dd2565b935083602082028501610f2785610de3565b8060005b85811015610f635784840389528151610f448582610edf565b9450610f4f83610ef3565b925060208a01995050600181019050610f2b565b50829750879550505050505092915050565b60006020820190508181036000830152610f8f8184610f00565b905092915050565b600080fd5b600080fd5b7f4e487b7100000000000000000000000000000000000000000000000000000000600052604160045260246000fd5b610fd982610cca565b810181811067ffffffffffffffff82111715610ff857610ff7610fa1565b5b80604052505050565b600061100b610b9c565b90506110178282610fd0565b919050565b600067ffffffffffffffff82111561103757611036610fa1565b5b61104082610cca565b9050602081019050919050565b82818337600083830152505050565b600061106f61106a8461101c565b611001565b90508281526020810184848401111561108b5761108a610f9c565b5b61109684828561104d565b509392505050565b600082601f8301126110b3576110b2610f97565b5b81356110c384826020860161105c565b91505092915050565b6000806000606084860312156110e5576110e4610ba6565b5b600084013567ffffffffffffffff81111561110357611102610bab565b5b61110f8682870161109e565b935050602084013567ffffffffffffffff8111156111305761112f610bab565b5b61113c8682870161109e565b925050604084013567ffffffffffffffff81111561115d5761115c610bab565b5b6111698682870161109e565b9150509250925092565b60006020828403121561118957611188610ba6565b5b600061119784828501610c2f565b91505092915050565b7f4e487b7100000000000000000000000000000000000000000000000000000000600052602260045260246000fd5b600060028204905060018216806111e757607f821691505b6020821081036111fa576111f96111a0565b5b50919050565b7f46696c65206e616d652069732072657175697265642e00000000000000000000600082015250565b6000611236601683610c8f565b915061124182611200565b602082019050919050565b6000602082019050818103600083015261126581611229565b9050919050565b7f46696c6520747970652069732072657175697265642e00000000000000000000600082015250565b60006112a2601683610c8f565b91506112ad8261126c565b602082019050919050565b600060208201905081810360008301526112d181611295565b9050919050565b7f4950465320686173682069732072657175697265642e00000000000000000000600082015250565b600061130e601683610c8f565b9150611319826112d8565b602082019050919050565b6000602082019050818103600083015261133d81611301565b9050919050565b60008190508160005260206000209050919050565b60006020601f8301049050919050565b600082821b905092915050565b6000600883026113a67fffffffffffffffffffffffffffffffffffffffffffffffffffffffffffffffff82611369565b6113b08683611369565b95508019841693508086168417925050509392505050565b6000819050919050565b60006113ed6113e86113e384610c0e565b6113c8565b610c0e565b9050919050565b6000819050919050565b611407836113d2565b61141b611413826113f4565b848454611376565b825550505050565b600090565b611430611423565b61143b8184846113fe565b505050565b5b8181101561145f57611454600082611428565b600181019050611441565b5050565b601f8211156114a45761147581611344565b61147e84611359565b8101602085101561148d578190505b6114a161149985611359565b830182611440565b50505b505050565b600082821c905092915050565b60006114c7600019846008026114a9565b1980831691505092915050565b60006114e083836114b6565b9150826002028217905092915050565b6114f982610c84565b67ffffffffffffffff81111561151257611511610fa1565b5b61151c82546111cf565b611527828285611463565b600060209050601f83116001811461155a5760008415611548578287015190505b61155285826114d4565b8655506115ba565b601f19841661156886611344565b60005b828110156115905784890151825560018201915060208501945060208101905061156b565b868310156115ad57848901516115a9601f8916826114b6565b8355505b6001600288020188555050505b505050505050565b600060808201905081810360008301526115dc8187610cdb565b905081810360208301526115f08186610cdb565b905081810360408301526116048185610cdb565b90506116136060830184610d23565b95945050505050565b7f496e76616c696420696e6465782e000000000000000000000000000000000000600082015250565b6000611652600e83610c8f565b915061165d8261161c565b602082019050919050565b6000602082019050818103600083015261168181611645565b9050919050565b7f4e487b7100000000000000000000000000000000000000000000000000000000600052601160045260246000fd5b60006116c282610c0e565b91506116cd83610c0e565b92508282039050818111156116e5576116e4611688565b5b92915050565b60006116f682610c0e565b915061170183610c0e565b925082820190508082111561171957611718611688565b5b92915050565b7f4e487b7100000000000000000000000000000000000000000000000000000000600052603260045260246000fd5b60008154905061175d816111cf565b9050919050565b81810361177257505061184a565b61177b8261174e565b67ffffffffffffffff81111561179457611793610fa1565b5b61179e82546111cf565b6117a9828285611463565b6000601f8311600181146117d857600084156117c6578287015490505b6117d085826114d4565b865550611843565b601f1984166117e687611344565b96506117f186611344565b60005b82811015611819578489015482556001820191506001850194506020810190506117f4565b868310156118365784890154611832601f8916826114b6565b8355505b6001600288020188555050505b5050505050505b565b600061185782610c0e565b91507fffffffffffffffffffffffffffffffffffffffffffffffffffffffffffffffff820361188957611888611688565b5b600182019050919050565b7f4e487b7100000000000000000000000000000000000000000000000000000000600052603160045260246000fdfea26469706673582212205f9639f9f3b7609dd8fda6c5b08e9476184ba4cd464f9c664ca8dccd78ffd18e64736f6c63430008140033",
  "linkReferences": {},
  "deployedLinkReferences": {}
}